:100000000C9462000C948A000C948A000C948A0070
:100010000C948A000C948A000C948A000C948A0038
:100020000C948A000C948A000C948A000C948A0028
:100030000C948A000C948A000C948A000C948A0018
:100040000C94D4020C948A000C94A2020C947C02AE
:100050000C948A000C948A000C948A000C948A00F8
:100060000C948A000C948A000000000024002700F1
:100070002A0000000000250028002B0000000000DE
:1000800023002600290004040404040404040202DA
:100090000202020203030303030301020408102007
:1000A0004080010204081020010204081020000012
:1000B0000008000201000003040700000000000027
:1000C0000000950411241FBECFEFD8E0DEBFCDBFE6
:1000D00011E0A0E0B1E0E4E9F9E002C005900D9282
:1000E000A833B107D9F721E0A8E3B1E001C01D9220
:1000F000A03EB207E1F710E0C2E6D0E004C02197CD
:10010000FE010E94C204C136D107C9F70E941E0336
:100110000C94C8040C940000AF92BF92CF92DF926F
:10012000EF92FF920F931F93CF93DF936C017B01AC
:100130008B01040F151FEB015E01AE18BF08C0173D
:10014000D10759F06991D601ED91FC910190F081B0
:10015000E02DC6010995892B79F7C501DF91CF9173
:100160001F910F91FF90EF90DF90CF90BF90AF90D5
:100170000895FC01538D448D252F30E0842F90E0AD
:10018000821B930B541710F0CF9608950197089592
:10019000FC01918D828D981761F0A28DAE0FBF2F5B
:1001A000B11D5D968C91928D9F5F9F73928F90E0B1
:1001B00008958FEF9FEF0895FC01918D828D981720
:1001C00031F0828DE80FF11D858D90E008958FEF5D
:1001D0009FEF0895FC01918D228D892F90E0805C26
:1001E0009F4F821B91098F739927089583E491E0B3
:1001F0000E94EA0021E0892B09F420E0822F089573
:1002000080E090E0892B29F00E94F60081110C9487
:1002100000000895FC01A48DA80FB92FB11DA35AA9
:10022000BF4F2C91848D90E001968F739927848F16
:10023000A689B7892C93A089B1898C918370806439
:100240008C93938D848D981306C00288F389E02DDA
:1002500080818F7D80830895EF92FF920F931F938B
:10026000CF93DF93EC0181E0888F9B8D8C8D981369
:100270001AC0E889F989808185FF15C09FB7F89475
:10028000EE89FF896083E889F989808183708064C1
:1002900080839FBF81E090E0DF91CF911F910F910C
:1002A000FF90EF900895F62E0B8D10E00F5F1F4F1B
:1002B0000F731127E02E8C8D8E110CC00FB607FC2A
:1002C000FACFE889F989808185FFF5CFCE010E94B8
:1002D0000A01F1CFEB8DEC0FFD2FF11DE35AFF4F1B
:1002E000F0829FB7F8940B8FEA89FB898081806246
:1002F000CFCFCF93DF93EC01888D8823B9F0AA8903
:10030000BB89E889F9898C9185FD03C0808186FDD0
:100310000DC00FB607FCF7CF8C9185FFF2CF80811F
:1003200085FFEDCFCE010E940A01E9CFDF91CF9189
:100330000895833081F028F4813099F08230A9F05B
:1003400008958730A9F08830C9F08430B1F48091E5
:1003500080008F7D03C0809180008F778093800024
:10036000089584B58F7784BD089584B58F7DFBCFC4
:100370008091B0008F778093B00008958091B00095
:100380008F7DF9CFCF93DF93282F30E0F901E2552D
:10039000FF4F8491F901E656FF4FD491F901EA57D6
:1003A000FF4FC491CC23A1F081110E949901EC2F41
:1003B000F0E0EE0FFF1FE458FF4FA591B491EC91D0
:1003C000ED2381E090E009F480E0DF91CF91089582
:1003D00080E090E0FACF1F93CF93DF93282F30E097
:1003E000F901E255FF4F8491F901E656FF4FD49190
:1003F000F901EA57FF4FC491CC23A9F0162F8111C0
:100400000E949901EC2FF0E0EE0FFF1FEE58FF4F16
:10041000A591B4918FB7F894EC91111108C0D095C3
:10042000DE23DC938FBFDF91CF911F910895DE2BE8
:10043000F8CFCF93DF9390E0FC01E656FF4F249175
:100440008A579F4FFC0184918823D1F090E0880F58
:10045000991FFC01E859FF4FA591B491FC01EE589A
:10046000FF4FC591D491623071F49FB7F8943C91DD
:10047000822F809583238C93E8812E2B28839FBF26
:10048000DF91CF9108958FB7F894EC912E2B2C9398
:100490008FBFF6CF3FB7F89480913D0190913E0118
:1004A000A0913F01B091400126B5A89B05C02F3F08
:1004B00019F00196A11DB11D3FBFBA2FA92F982F8A
:1004C0008827BC01CD01620F711D811D911D42E085
:1004D000660F771F881F991F4A95D1F70895FC0171
:1004E00001900020E9F73197AF01481B590BBC017F
:1004F00083E491E00C948C001F920F920FB60F9240
:1005000011242F933F934F935F936F937F938F9318
:100510009F93AF93BF93EF93FF9383E491E00E9487
:100520000A01FF91EF91BF91AF919F918F917F91C0
:100530006F915F914F913F912F910F900FBE0F9050
:100540001F9018951F920F920FB60F9211242F93A0
:100550008F939F93EF93FF93E0915301F091540198
:100560008081E0915901F0915A0182FD1BC0908178
:1005700080915C018F5F8F7320915D01821741F044
:10058000E0915C01F0E0ED5BFE4F958F80935C01A4
:10059000FF91EF919F918F912F910F900FBE0F9030
:1005A0001F9018958081F4CF1F920F920FB60F9273
:1005B00011242F933F938F939F93AF93BF93809179
:1005C000390190913A01A0913B01B0913C013091E9
:1005D000380123E0230F2D3758F50196A11DB11DD9
:1005E000209338018093390190933A01A0933B0105
:1005F000B0933C0180913D0190913E01A0913F015B
:10060000B09140010196A11DB11D80933D019093D1
:100610003E01A0933F01B0934001BF91AF919F91E4
:100620008F913F912F910F900FBE0F901F901895B3
:1006300026E8230F0296A11DB11DD2CFCF93DF93E1
:10064000CDB7DEB72C970FB6F894DEBF0FBECDBF87
:10065000789484B5826084BD84B5816084BD85B59D
:10066000826085BD85B5816085BD80916E008160A9
:1006700080936E001092810080918100826080934F
:100680008100809181008160809381008091800051
:100690008160809380008091B10084608093B1007C
:1006A0008091B00081608093B00080917A00846076
:1006B00080937A0080917A00826080937A008091A2
:1006C0007A00816080937A0080917A0080688093BC
:1006D0007A001092C100E0915301F091540182E040
:1006E0008083E0914F01F09150011082E09151011F
:1006F000F09152018FEC808310925B01E0915701E1
:10070000F091580186E08083E0915501F091560107
:10071000808180618083E0915501F0915601808154
:1007200088608083E0915501F09156018081806856
:100730008083E0915501F091560180818F7D808307
:1007400062E085E00E94190262E082E00E941902E4
:1007500062E083E00E94190262E084E00E941902D4
:1007600062E086E00E94190262E089E00E941902BC
:1007700061E087E00E94190261E08DE00E941902A9
:10078000CE0101965C013AE2632E31E0732E40E027
:10079000842E40E0942ED501ECE01D92EA95E9F715
:1007A00060E087E00E94EB0186E00E94C20121E048
:1007B000892B09F420E02D8389E00E94C20121E009
:1007C000892B09F420E02E8361E087E00E94EB0191
:1007D00022E1C22E21E0D22E8601D80111968C9101
:1007E0000E94C201D801EC91EA0DFB2DF11D21E020
:1007F000892B09F420E020830C5F1F4F60167106DF
:1008000061F780914101909142010A9789F58D81AC
:10081000811185C08CE291E00E946F028E8181116E
:1008200081C080E391E00E946F0282E1E82E81E0C6
:10083000F82ED701EC91EA0DFB2DF11D808181117D
:100840005AC0C701029611F00E946F02B4E0EB0E8D
:10085000F11CE016F10669F786E391E00E946F0251
:1008600084E391E00E946F021092420110924101D4
:100870008D81882319F08E81811140C061E08DE067
:100880000E94EB0180914101909142010196909369
:100890004201809341010E944A021B012C0190E118
:1008A000C92ED12CE12CF12C0E944A026219730945
:1008B00084099509683E734081059105A8F3E1E03C
:1008C000CE1AD108E108F108F8EE2F0EF3E03F1E32
:1008D000411C511CC114D104E104F10429F7811415
:1008E000910409F458CF0E94F600882309F453CFED
:1008F0000E94000050CF82E391E0A6CFD601EC9198
:10090000EA0DFB2DF11D8081882309F4B7CFB4E0F7
:10091000CB0ED11CC016D10689F760E0B0CF82E3C0
:1009200091E07ACF82E391E07ECFE3E4F1E01382BD
:10093000128288EE93E0A0E0B0E084839583A683E2
:10094000B78384E091E09183808385EC90E0958784
:10095000848784EC90E09787868780EC90E0918B89
:10096000808B81EC90E0938B828B82EC90E0958B76
:10097000848B86EC90E0978B868B118E128E138E73
:10098000148E0895EE0FFF1F0590F491E02D099449
:04099000F894FFCF09
:10099400000000002C018C00B9007901EA00C800B5
:1009A400DC00060555000702440008034C00090456
:1009B40052000A0642000B094300040641000509DF
:0809C40053002E000D0A000093
:00000001FF
