:100000000C9462000C948A000C948A000C948A0070
:100010000C948A000C948A000C948A000C948A0038
:100020000C948A000C948A000C948A000C948A0028
:100030000C948A000C948A000C948A000C948A0018
:100040000C94D4020C948A000C94A2020C947C02AE
:100050000C948A000C948A000C948A000C948A00F8
:100060000C948A000C948A000000000024002700F1
:100070002A0000000000250028002B0000000000DE
:1000800023002600290004040404040404040202DA
:100090000202020203030303030301020408102007
:1000A0004080010204081020010204081020000012
:1000B0000008000201000003040700000000000027
:1000C00000001E0511241FBECFEFD8E0DEBFCDBF5C
:1000D00011E0A0E0B1E0E6EAFAE002C005900D927E
:1000E000AC36B107D9F722E0ACE6B1E001C01D9211
:1000F000A431B207E1F710E0C2E6D0E004C02197D6
:10010000FE010E944B05C136D107C9F70E941E03AC
:100110000C9451050C940000AF92BF92CF92DF92E5
:10012000EF92FF920F931F93CF93DF936C017B01AC
:100130008B01040F151FEB015E01AE18BF08C0173D
:10014000D10759F06991D601ED91FC910190F081B0
:10015000E02DC6010995892B79F7C501DF91CF9173
:100160001F910F91FF90EF90DF90CF90BF90AF90D5
:100170000895FC01538D448D252F30E0842F90E0AD
:10018000821B930B541710F0CF9608950197089592
:10019000FC01918D828D981761F0A28DAE0FBF2F5B
:1001A000B11D5D968C91928D9F5F9F73928F90E0B1
:1001B00008958FEF9FEF0895FC01918D828D981720
:1001C00031F0828DE80FF11D858D90E008958FEF5D
:1001D0009FEF0895FC01918D228D892F90E0805C26
:1001E0009F4F821B91098F739927089587E791E0AC
:1001F0000E94EA0021E0892B09F420E0822F089573
:1002000080E090E0892B29F00E94F60081110C9487
:1002100000000895FC01A48DA80FB92FB11DA35AA9
:10022000BF4F2C91848D90E001968F739927848F16
:10023000A689B7892C93A089B1898C918370806439
:100240008C93938D848D981306C00288F389E02DDA
:1002500080818F7D80830895EF92FF920F931F938B
:10026000CF93DF93EC0181E0888F9B8D8C8D981369
:100270001AC0E889F989808185FF15C09FB7F89475
:10028000EE89FF896083E889F989808183708064C1
:1002900080839FBF81E090E0DF91CF911F910F910C
:1002A000FF90EF900895F62E0B8D10E00F5F1F4F1B
:1002B0000F731127E02E8C8D8E110CC00FB607FC2A
:1002C000FACFE889F989808185FFF5CFCE010E94B8
:1002D0000A01F1CFEB8DEC0FFD2FF11DE35AFF4F1B
:1002E000F0829FB7F8940B8FEA89FB898081806246
:1002F000CFCFCF93DF93EC01888D8823B9F0AA8903
:10030000BB89E889F9898C9185FD03C0808186FDD0
:100310000DC00FB607FCF7CF8C9185FFF2CF80811F
:1003200085FFEDCFCE010E940A01E9CFDF91CF9189
:100330000895833081F028F4813099F08230A9F05B
:1003400008958730A9F08830C9F08430B1F48091E5
:1003500080008F7D03C0809180008F778093800024
:10036000089584B58F7784BD089584B58F7DFBCFC4
:100370008091B0008F778093B00008958091B00095
:100380008F7DF9CFCF93DF93282F30E0F901E2552D
:10039000FF4F8491F901E656FF4FD491F901EA57D6
:1003A000FF4FC491CC23A1F081110E949901EC2F41
:1003B000F0E0EE0FFF1FE458FF4FA591B491EC91D0
:1003C000ED2381E090E009F480E0DF91CF91089582
:1003D00080E090E0FACF1F93CF93DF93282F30E097
:1003E000F901E255FF4F8491F901E656FF4FD49190
:1003F000F901EA57FF4FC491CC23A9F0162F8111C0
:100400000E949901EC2FF0E0EE0FFF1FEE58FF4F16
:10041000A591B4918FB7F894EC91111108C0D095C3
:10042000DE23DC938FBFDF91CF911F910895DE2BE8
:10043000F8CFCF93DF9390E0FC01E656FF4F249175
:100440008A579F4FFC0184918823D1F090E0880F58
:10045000991FFC01E859FF4FA591B491FC01EE589A
:10046000FF4FC591D491623071F49FB7F8943C91DD
:10047000822F809583238C93E8812E2B28839FBF26
:10048000DF91CF9108958FB7F894EC912E2B2C9398
:100490008FBFF6CF3FB7F8948091710190917201B0
:1004A000A0917301B091740126B5A89B05C02F3FA0
:1004B00019F00196A11DB11D3FBFBA2FA92F982F8A
:1004C0008827BC01CD01620F711D811D911D42E085
:1004D000660F771F881F991F4A95D1F70895FC0171
:1004E00001900020E9F73197AF01481B590BBC017F
:1004F00087E791E00C948C001F920F920FB60F9239
:1005000011242F933F934F935F936F937F938F9318
:100510009F93AF93BF93EF93FF9387E791E00E9480
:100520000A01FF91EF91BF91AF919F918F917F91C0
:100530006F915F914F913F912F910F900FBE0F9050
:100540001F9018951F920F920FB60F9211242F93A0
:100550008F939F93EF93FF93E0918701F091880130
:100560008081E0918D01F0918E0182FD1BC0908110
:10057000809190018F5F8F7320919101821741F0DC
:10058000E0919001F0E0E958FE4F958F8093900143
:10059000FF91EF919F918F912F910F900FBE0F9030
:1005A0001F9018958081F4CF1F920F920FB60F9273
:1005B00011242F933F938F939F93AF93BF93809179
:1005C0006D0190916E01A0916F01B0917001309119
:1005D0006C0123E0230F2D3758F50196A11DB11DA5
:1005E00020936C0180936D0190936E01A0936F0135
:1005F000B09370018091710190917201A09173018B
:10060000B09174010196A11DB11D80937101909369
:100610007201A0937301B0937401BF91AF919F9148
:100620008F913F912F910F900FBE0F901F901895B3
:1006300026E8230F0296A11DB11DD2CFCF93DF93E1
:10064000CDB7DEB72C970FB6F894DEBF0FBECDBF87
:10065000789484B5826084BD84B5816084BD85B59D
:10066000826085BD85B5816085BD80916E008160A9
:1006700080936E001092810080918100826080934F
:100680008100809181008160809381008091800051
:100690008160809380008091B10084608093B1007C
:1006A0008091B00081608093B00080917A00846076
:1006B00080937A0080917A00826080937A008091A2
:1006C0007A00816080937A0080917A0080688093BC
:1006D0007A001092C100E0918701F091880182E0D8
:1006E0008083E0918301F09184011082E091850183
:1006F000F09186018FEC808310928F01E0918B0145
:10070000F0918C0186E08083E0918901F0918A016B
:10071000808180618083E0918901F0918A018081EC
:1007200088608083E0918901F0918A0180818068EE
:100730008083E0918901F0918A0180818F7D80839F
:1007400062E085E00E94190262E082E00E941902E4
:1007500062E083E00E94190262E084E00E941902D4
:1007600062E086E00E94190262E089E00E941902BC
:1007700061E087E00E94190261E08DE00E941902A9
:1007800061E087E00E94EB014AE5A42E41E0B42E2F
:100790005EE4652E51E0752E30E0832E30E0932E1E
:1007A0008CE0E0E0F1E0DE01119601900D928A9577
:1007B000E1F760E087E00E94EB0186E00E94C20161
:1007C00089E00E94C20161E087E00E94EB012AE516
:1007D000C22E21E0D22E7601D70111968C910E9473
:1007E000C201D701EC9121E030E02C0F3D1F2E0F0C
:1007F000311DF90121E0892B09F420E0208332E04A
:10080000E30EF11C86E691E08E159F0529F760E066
:1008100087E00E94EB0186E00E94C20121E0892B63
:1008200009F420E02E8389E00E94C20121E0892B97
:1008300009F420E02D8361E087E00E94EB010AE5E6
:1008400011E0D80111968C910E94C201D801EC915F
:1008500021E030E02C0F3D1F2E0F311DF90121E06A
:10086000892B09F420E020830E5F1F4FE016F1066C
:1008700041F760E087E00E94EB0185E00E94C20141
:10088000892B09F0CDC086E00E94C20189E00E9458
:10089000C20161E087E00E94EB019EE4E92E91E055
:1008A000F92ED70111968C910E94C201D701EC91CB
:1008B00021E030E02C0F3D1F2E0F311DF90121E00A
:1008C000892B09F420E0208332E0E30EF11CAE1402
:1008D000BF0439F760E087E00E94EB0186E00E94E8
:1008E000C20121E0892B09F420E02E8389E00E94D7
:1008F000C20121E0892B09F420E02D8361E087E02B
:100900000E94EB01D60111968C910E94C201D60182
:10091000EC9121E030E02C0F3D1F2E0F311DF9012D
:1009200021E0892B09F420E0208332E0C30ED11CA2
:10093000C016D10639F780917501909176010A971A
:1009400029F50EE111E0D801EC9121E030E02C0F07
:100950003D1F2E0F311DF9018081811166C0C80134
:10096000019611F00E946F020D5F1F4F31E00234BB
:10097000130749F78AE691E00E946F0288E691E04A
:100980000E946F021092760110927501E2E4F1E08C
:10099000A19181E090E08C0F9D1F8A0F911DDC01D9
:1009A0008C91811145C061E08DE00E94EB01809146
:1009B000750190917601019690937601809375016F
:1009C0000E944A021B012C0180E1C82ED12CE12C8F
:1009D000F12C0E944A026219730984099509683E44
:1009E000734081059105A8F391E0C91AD108E10887
:1009F000F108A8EE2A0EA3E03A1E411C511CC114B6
:100A0000D104E104F10429F78114910409F4C8CE5A
:100A10000E94F600882309F4BFCE0E940000BCCEDD
:100A200061E087E00E94EB0186CF86E691E09ACFF5
:100A30006E167F0609F0ACCF60E0B6CFE7E7F1E0D5
:100A40001382128288EE93E0A0E0B0E08483958365
:100A5000A683B78380E191E09183808385EC90E069
:100A60009587848784EC90E09787868780EC90E078
:100A7000918B808B81EC90E0938B828B82EC90E069
:100A8000958B848B86EC90E0978B868B118E128EE3
:100A9000138E148E0895EE0FFF1F0590F491E02D34
:060AA0000994F894FFCF59
:100AA6000101010101010101010101010000000034
:100AB6002C018C00B9007901EA00C800DC00005561
:100AC60000014400024C000352000453000541009B
:100AD600064200074300084D000958000A59000B5A
:100AE6005A00000102030405060708090A0B0B0554
:100AF6000A020903080406060709000501020203A3
:0C0B06000304060607092E000D0A00007B
:00000001FF
