:100000000C9462000C948A000C948A000C948A0070
:100010000C948A000C948A000C948A000C948A0038
:100020000C948A000C948A000C948A000C948A0028
:100030000C948A000C948A000C948A000C948A0018
:100040000C94D4020C948A000C94A2020C947C02AE
:100050000C948A000C948A000C948A000C948A00F8
:100060000C948A000C948A000000000024002700F1
:100070002A0000000000250028002B0000000000DE
:1000800023002600290004040404040404040202DA
:100090000202020203030303030301020408102007
:1000A0004080010204081020010204081020000012
:1000B0000008000201000003040700000000000027
:1000C00000008D0411241FBECFEFD8E0DEBFCDBFEE
:1000D00011E0A0E0B1E0E4E8F9E002C005900D9283
:1000E000A838B107D9F722E0A8E8B1E001C01D9215
:1000F000AF32B207E1F710E0C2E6D0E004C02197CA
:10010000FE010E94BA04C136D107C9F70E941E033E
:100110000C94C0040C940000AF92BF92CF92DF9277
:10012000EF92FF920F931F93CF93DF936C017B01AC
:100130008B01040F151FEB015E01AE18BF08C0173D
:10014000D10759F06991D601ED91FC910190F081B0
:10015000E02DC6010995892B79F7C501DF91CF9173
:100160001F910F91FF90EF90DF90CF90BF90AF90D5
:100170000895FC01538D448D252F30E0842F90E0AD
:10018000821B930B541710F0CF9608950197089592
:10019000FC01918D828D981761F0A28DAE0FBF2F5B
:1001A000B11D5D968C91928D9F5F9F73928F90E0B1
:1001B00008958FEF9FEF0895FC01918D828D981720
:1001C00031F0828DE80FF11D858D90E008958FEF5D
:1001D0009FEF0895FC01918D228D892F90E0805C26
:1001E0009F4F821B91098F739927089582E991E0AF
:1001F0000E94EA0021E0892B09F420E0822F089573
:1002000080E090E0892B29F00E94F60081110C9487
:1002100000000895FC01A48DA80FB92FB11DA35AA9
:10022000BF4F2C91848D90E001968F739927848F16
:10023000A689B7892C93A089B1898C918370806439
:100240008C93938D848D981306C00288F389E02DDA
:1002500080818F7D80830895EF92FF920F931F938B
:10026000CF93DF93EC0181E0888F9B8D8C8D981369
:100270001AC0E889F989808185FF15C09FB7F89475
:10028000EE89FF896083E889F989808183708064C1
:1002900080839FBF81E090E0DF91CF911F910F910C
:1002A000FF90EF900895F62E0B8D10E00F5F1F4F1B
:1002B0000F731127E02E8C8D8E110CC00FB607FC2A
:1002C000FACFE889F989808185FFF5CFCE010E94B8
:1002D0000A01F1CFEB8DEC0FFD2FF11DE35AFF4F1B
:1002E000F0829FB7F8940B8FEA89FB898081806246
:1002F000CFCFCF93DF93EC01888D8823B9F0AA8903
:10030000BB89E889F9898C9185FD03C0808186FDD0
:100310000DC00FB607FCF7CF8C9185FFF2CF80811F
:1003200085FFEDCFCE010E940A01E9CFDF91CF9189
:100330000895833081F028F4813099F08230A9F05B
:1003400008958730A9F08830C9F08430B1F48091E5
:1003500080008F7D03C0809180008F778093800024
:10036000089584B58F7784BD089584B58F7DFBCFC4
:100370008091B0008F778093B00008958091B00095
:100380008F7DF9CFCF93DF93282F30E0F901E2552D
:10039000FF4F8491F901E656FF4FD491F901EA57D6
:1003A000FF4FC491CC23A1F081110E949901EC2F41
:1003B000F0E0EE0FFF1FE458FF4FA591B491EC91D0
:1003C000ED2381E090E009F480E0DF91CF91089582
:1003D00080E090E0FACF1F93CF93DF93282F30E097
:1003E000F901E255FF4F8491F901E656FF4FD49190
:1003F000F901EA57FF4FC491CC23A9F0162F8111C0
:100400000E949901EC2FF0E0EE0FFF1FEE58FF4F16
:10041000A591B4918FB7F894EC91111108C0D095C3
:10042000DE23DC938FBFDF91CF911F910895DE2BE8
:10043000F8CFCF93DF9390E0FC01E656FF4F249175
:100440008A579F4FFC0184918823D1F090E0880F58
:10045000991FFC01E859FF4FA591B491FC01EE589A
:10046000FF4FC591D49161110EC09FB7F8948C9144
:10047000E22FE0958E238C932881E223E8839FBFAF
:10048000DF91CF9108958FB7F894EC91E22BEC9324
:100490008FBFF6CF3FB7F89480918E0190918F0176
:1004A000A0919001B091910126B5A89B05C02F3F66
:1004B00019F00196A11DB11D3FBFBA2FA92F982F8A
:1004C0008827BC01CD01620F711D811D911D42E085
:1004D000660F771F881F991F4A95D1F70895FC0171
:1004E00001900020E9F73197AF01481B590BBC017F
:1004F00082E991E00C948C001F920F920FB60F923C
:1005000011242F933F934F935F936F937F938F9318
:100510009F93AF93BF93EF93FF9382E991E00E9483
:100520000A01FF91EF91BF91AF919F918F917F91C0
:100530006F915F914F913F912F910F900FBE0F9050
:100540001F9018951F920F920FB60F9211242F93A0
:100550008F939F93EF93FF93E091A201F091A301FA
:100560008081E091A801F091A90182FD1BC09081DA
:100570008091AB018F5F8F732091AC01821741F0A6
:10058000E091AB01F0E0EE56FE4F958F8093AB010A
:10059000FF91EF919F918F912F910F900FBE0F9030
:1005A0001F9018958081F4CF1F920F920FB60F9273
:1005B00011242F933F938F939F93AF93BF93809179
:1005C0008A0190918B01A0918C01B0918D013091A5
:1005D000890123E0230F2D3758F50196A11DB11D88
:1005E0002093890180938A0190938B01A0938C01C1
:1005F000B0938D0180918E0190918F01A091900117
:10060000B09191010196A11DB11D80938E0190932F
:100610008F01A0939001B0939101BF91AF919F91F1
:100620008F913F912F910F900FBE0F901F901895B3
:1006300026E8230F0296A11DB11DD2CFCF93DF93E1
:10064000CDB7DEB72C970FB6F894DEBF0FBECDBF87
:10065000789484B5826084BD84B5816084BD85B59D
:10066000826085BD85B5816085BD80916E008160A9
:1006700080936E001092810080918100826080934F
:100680008100809181008160809381008091800051
:100690008160809380008091B10084608093B1007C
:1006A0008091B00081608093B00080917A00846076
:1006B00080937A0080917A00826080937A008091A2
:1006C0007A00816080937A0080917A0080688093BC
:1006D0007A001092C100E091A201F091A30182E0A2
:1006E0008083E0919E01F0919F011082E091A00132
:1006F000F091A1018FEC80831092AA01E091A601F4
:10070000F091A70186E08083E091A401F091A5011A
:10071000808180618083E091A401F091A5018081B6
:1007200088608083E091A401F091A50180818068B8
:100730008083E091A401F091A50180818F7D808369
:1007400060E085E00E94190260E082E00E941902E8
:1007500060E083E00E94190260E084E00E941902D8
:1007600060E086E00E94190260E089E00E941902C0
:1007700061E087E00E94190261E08DE00E941902A9
:10078000CE0101966C013BE3232E31E0332ED601DE
:10079000ECE01D92EA95E9F760E087E00E94EB014A
:1007A0002BE3822E21E0922E7401D7011296ED9157
:1007B000FC9180810E94C201D701ED91FC91E08102
:1007C000EC0DFD2DF11D21E0892B09F420E02083A3
:1007D000B6E0EB0EF11CEFE5F1E0EE15FF0529F7B1
:1007E00061E087E00E94EB0197E1A92E91E0B92E2C
:1007F0008501D8011296ED91FC9180810E94C20181
:10080000D801ED91FC91E081EC0DFD2DF11D21E071
:10081000892B09F420E020830A5F1F4F2016310640
:1008200041F7712CD401ED91FC911197E081EC0D11
:10083000FD2DF11D808181110AC014968D919C912E
:10084000009711F00E946F027724739404C081E72F
:1008500091E00E946F02B6E08B0E911C8E149F04F3
:1008600009F7D501ED91FC911197E081EC0DFD2D7B
:10087000F11D808181110AC014968D919C91009781
:1008800011F00E946F027724739404C081E791E015
:100890000E946F02B6E0AB0EB11C0A151B0509F7EA
:1008A00085E791E00E946F0283E791E00E946F026A
:1008B000672D8DE00E94EB010E944A022B013C0152
:1008C00084E6882E912CA12CB12C0E944A02641936
:1008D000750986099709683E734081059105A8F35B
:1008E000E1E08E1A9108A108B108F8EE4F0EF3E08E
:1008F0005F1E611C711C81149104A104B10429F7CD
:1009000080E090E0892B09F442CF0E94F600882312
:1009100009F43DCF0E9400003ACFE2E9F1E01382F2
:10092000128288EE93E0A0E0B0E084839583A683F2
:10093000B78383E691E09183808385EC90E095878F
:10094000848784EC90E09787868780EC90E0918B99
:10095000808B81EC90E0938B828B82EC90E0958B86
:10096000848B86EC90E0978B868B118E128E138E83
:10097000148E0895EE0FFF1F0590F491E02D099459
:04098000F894FFCF19
:10098400090B060A040903080207050609050604FB
:10099400040303020201050B010A0176010901089F
:1009A400017801070106017A01050104017C0103B4
:1009B4000102017E0101010001800188011601820A
:1009C40001150114018201130112018201110110A8
:1009D4000182010F010E0184010D010C0186010049
:1009E4000000002C018C00B9007901EA00C800DC89
:1009F400002E000D0A00550044004C005200420035
:080A040043002D0041005300E6
:00000001FF
