:020000040000FA
:100000000C9462000C948A000C948A000C948A0070
:100010000C948A000C948A000C948A000C948A0038
:100020000C948A000C948A000C948A000C948A0028
:100030000C948A000C948A000C948A000C948A0018
:100040000C94D4020C948A000C94A2020C947C02AE
:100050000C948A000C948A000C948A000C948A00F8
:100060000C948A000C948A000000000024002700F1
:100070002A0000000000250028002B0000000000DE
:1000800023002600290004040404040404040202DA
:100090000202020203030303030301020408102007
:1000A0004080010204081020010204081020000012
:1000B0000008000201000003040700000000000027
:1000C0000000A20411241FBECFEFD8E0DEBFCDBFD9
:1000D00011E0A0E0B1E0EEEAF9E002C005900D9277
:1000E000A434B107D9F721E0A4E4B1E001C01D9226
:1000F000AC3EB207E1F710E0C2E6D0E004C02197C1
:10010000FE010E94CF04C136D107C9F70E941E0329
:100110000C94D5040C940000AF92BF92CF92DF9262
:10012000EF92FF920F931F93CF93DF936C017B01AC
:100130008B01040F151FEB015E01AE18BF08C0173D
:10014000D10759F06991D601ED91FC910190F081B0
:10015000E02DC6010995892B79F7C501DF91CF9173
:100160001F910F91FF90EF90DF90CF90BF90AF90D5
:100170000895FC01538D448D252F30E0842F90E0AD
:10018000821B930B541710F0CF9608950197089592
:10019000FC01918D828D981761F0A28DAE0FBF2F5B
:1001A000B11D5D968C91928D9F5F9F73928F90E0B1
:1001B00008958FEF9FEF0895FC01918D828D981720
:1001C00031F0828DE80FF11D858D90E008958FEF5D
:1001D0009FEF0895FC01918D228D892F90E0805C26
:1001E0009F4F821B91098F73992708958FE491E0A7
:1001F0000E94EA0021E0892B09F420E0822F089573
:1002000080E090E0892B29F00E94F60081110C9487
:1002100000000895FC01A48DA80FB92FB11DA35AA9
:10022000BF4F2C91848D90E001968F739927848F16
:10023000A689B7892C93A089B1898C918370806439
:100240008C93938D848D981306C00288F389E02DDA
:1002500080818F7D80830895EF92FF920F931F938B
:10026000CF93DF93EC0181E0888F9B8D8C8D981369
:100270001AC0E889F989808185FF15C09FB7F89475
:10028000EE89FF896083E889F989808183708064C1
:1002900080839FBF81E090E0DF91CF911F910F910C
:1002A000FF90EF900895F62E0B8D10E00F5F1F4F1B
:1002B0000F731127E02E8C8D8E110CC00FB607FC2A
:1002C000FACFE889F989808185FFF5CFCE010E94B8
:1002D0000A01F1CFEB8DEC0FFD2FF11DE35AFF4F1B
:1002E000F0829FB7F8940B8FEA89FB898081806246
:1002F000CFCFCF93DF93EC01888D8823B9F0AA8903
:10030000BB89E889F9898C9185FD03C0808186FDD0
:100310000DC00FB607FCF7CF8C9185FFF2CF80811F
:1003200085FFEDCFCE010E940A01E9CFDF91CF9189
:100330000895833081F028F4813099F08230A9F05B
:1003400008958730A9F08830C9F08430B1F48091E5
:1003500080008F7D03C0809180008F778093800024
:10036000089584B58F7784BD089584B58F7DFBCFC4
:100370008091B0008F778093B00008958091B00095
:100380008F7DF9CFCF93DF93282F30E0F901E2552D
:10039000FF4F8491F901E656FF4FD491F901EA57D6
:1003A000FF4FC491CC23A1F081110E949901EC2F41
:1003B000F0E0EE0FFF1FE458FF4FA591B491EC91D0
:1003C000ED2381E090E009F480E0DF91CF91089582
:1003D00080E090E0FACF1F93CF93DF93282F30E097
:1003E000F901E255FF4F8491F901E656FF4FD49190
:1003F000F901EA57FF4FC491CC23A9F0162F8111C0
:100400000E949901EC2FF0E0EE0FFF1FEE58FF4F16
:10041000A591B4918FB7F894EC91111108C0D095C3
:10042000DE23DC938FBFDF91CF911F910895DE2BE8
:10043000F8CFCF93DF9390E0FC01E656FF4F249175
:100440008A579F4FFC0184918823D1F090E0880F58
:10045000991FFC01E859FF4FA591B491FC01EE589A
:10046000FF4FC591D491623071F49FB7F8943C91DD
:10047000822F809583238C93E8812E2B28839FBF26
:10048000DF91CF9108958FB7F894EC912E2B2C9398
:100490008FBFF6CF3FB7F8948091490190914A0100
:1004A000A0914B01B0914C0126B5A89B05C02F3FF0
:1004B00019F00196A11DB11D3FBFBA2FA92F982F8A
:1004C0008827BC01CD01620F711D811D911D42E085
:1004D000660F771F881F991F4A95D1F70895FC0171
:1004E00001900020E9F73197AF01481B590BBC017F
:1004F0008FE491E00C948C001F920F920FB60F9234
:1005000011242F933F934F935F936F937F938F9318
:100510009F93AF93BF93EF93FF938FE491E00E947B
:100520000A01FF91EF91BF91AF919F918F917F91C0
:100530006F915F914F913F912F910F900FBE0F9050
:100540001F9018951F920F920FB60F9211242F93A0
:100550008F939F93EF93FF93E0915F01F091600180
:100560008081E0916501F091660182FD1BC0908160
:10057000809168018F5F8F7320916901821741F02C
:10058000E0916801F0E0E15BFE4F958F8093680198
:10059000FF91EF919F918F912F910F900FBE0F9030
:1005A0001F9018958081F4CF1F920F920FB60F9273
:1005B00011242F933F938F939F93AF93BF93809179
:1005C000450190914601A0914701B09148013091B9
:1005D000440123E0230F2D3758F50196A11DB11DCD
:1005E000209344018093450190934601A0934701D5
:1005F000B09348018091490190914A01A0914B012B
:10060000B0914C010196A11DB11D809349019093B9
:100610004A01A0934B01B0934C01BF91AF919F91C0
:100620008F913F912F910F900FBE0F901F901895B3
:1006300026E8230F0296A11DB11DD2CFCF93DF93E1
:10064000CDB7DEB72C970FB6F894DEBF0FBECDBF87
:10065000789484B5826084BD84B5816084BD85B59D
:10066000826085BD85B5816085BD80916E008160A9
:1006700080936E001092810080918100826080934F
:100680008100809181008160809381008091800051
:100690008160809380008091B10084608093B1007C
:1006A0008091B00081608093B00080917A00846076
:1006B00080937A0080917A00826080937A008091A2
:1006C0007A00816080937A0080917A0080688093BC
:1006D0007A001092C100E0915F01F091600182E028
:1006E0008083E0915B01F0915C011082E0915D01FB
:1006F000F0915E018FEC808310926701E0916301BD
:10070000F091640186E08083E0916101F0916201E3
:10071000808180618083E0916101F091620180813C
:1007200088608083E0916101F0916201808180683E
:100730008083E0916101F091620180818F7D8083EF
:1007400062E085E00E94190262E082E00E941902E4
:1007500062E083E00E94190262E084E00E941902D4
:1007600062E086E00E94190262E089E00E941902BC
:1007700061E087E00E94190261E08DE00E941902A9
:1007800036E3A32E31E0B32E40E0842E40E0942ED9
:100790008CE0E0E0F1E0DE01119601900D928A9587
:1007A000E1F760E087E00E94EB0186E00E94C20171
:1007B00021E0892B09F420E02D8389E00E94C20109
:1007C00021E0892B09F420E02E8361E087E00E947C
:1007D000EB012EE1C22E21E0D22E8601D801119626
:1007E0008C910E94C201D801EC9121E030E02C0FE5
:1007F0003D1F2E0F311DF90121E0892B09F420E066
:1008000020830C5F1F4FA016B10641F780914D0168
:1008100090914E010A97A9F58D8181118DC088E3D1
:1008200091E00E946F028E81811189C08CE391E07A
:100830000E946F028EE1E82E81E0F82ED701EC9144
:1008400021E030E02C0F3D1F2E0F311DF90180817A
:1008500081115AC0C701029611F00E946F0234E064
:10086000E30EF11CE016F10649F782E491E00E94E4
:100870006F0280E491E00E946F0210924E0110928C
:100880004D018D81882319F08E81811140C061E076
:100890008DE00E94EB0180914D0190914E010196F7
:1008A00090934E0180934D010E944A022B013C011E
:1008B00090E1C92ED12CE12CF12C0E944A0264193E
:1008C000750986099709683E734081059105A8F36B
:1008D00081E0C81AD108E108F10898EE490E93E0CA
:1008E000591E611C711CC114D104E104F10429F7E3
:1008F0008114910409F44CCF0E94F600882309F476
:1009000047CF0E94000044CF8EE391E0A6CFD601EE
:10091000EC9121E030E02C0F3D1F2E0F311DF9012D
:100920008081882309F4B3CF34E0C30ED11CC016F4
:10093000D10669F760E0ACCF8EE391E072CF8EE331
:1009400091E076CFEFE4F1E01382128288EE93E03B
:10095000A0E0B0E084839583A683B78380E191E033
:100960009183808385EC90E09587848784EC90E088
:100970009787868780EC90E0918B808B81EC90E06C
:10098000938B828B82EC90E0958B848B86EC90E04D
:10099000978B868B118E128E138E148E0895EE0F08
:1009A000FF1F0590F491E02D0994F894FFCF010109
:1009B00001010101010101010101000000002C0100
:1009C0008C00B9007901EA00C800DC00060555007A
:1009D0000702440008034C00090452000A064200C2
:1009E0000B09430004064100050953002E000D0ABF
:0209F000000005
:107E0000112484B714BE81FFF0D085E080938100F7
:107E100082E08093C00088E18093C10086E0809377
:107E2000C20080E18093C4008EE0C9D0259A86E02C
:107E300020E33CEF91E0309385002093840096BBD3
:107E4000B09BFECF1D9AA8958150A9F7CC24DD24C4
:107E500088248394B5E0AB2EA1E19A2EF3E0BF2EE7
:107E6000A2D0813461F49FD0082FAFD0023811F036
:107E7000013811F484E001C083E08DD089C08234E0
:107E800011F484E103C0853419F485E0A6D080C0E4
:107E9000853579F488D0E82EFF2485D0082F10E0AE
:107EA000102F00270E291F29000F111F8ED06801E7
:107EB0006FC0863521F484E090D080E0DECF843638
:107EC00009F040C070D06FD0082F6DD080E0C81688
:107ED00080E7D80618F4F601B7BEE895C0E0D1E017
:107EE00062D089930C17E1F7F0E0CF16F0E7DF06D8
:107EF00018F0F601B7BEE89568D007B600FCFDCFD4
:107F0000A601A0E0B1E02C9130E011968C91119780
:107F100090E0982F8827822B932B1296FA010C0160
:107F200087BEE89511244E5F5F4FF1E0A038BF0790
:107F300051F7F601A7BEE89507B600FCFDCF97BE46
:107F4000E89526C08437B1F42ED02DD0F82E2BD052
:107F50003CD0F601EF2C8F010F5F1F4F84911BD097
:107F6000EA94F801C1F70894C11CD11CFA94CF0C13
:107F7000D11C0EC0853739F428D08EE10CD085E9AC
:107F80000AD08FE07ACF813511F488E018D01DD067
:107F900080E101D065CF982F8091C00085FFFCCF94
:107FA0009093C60008958091C00087FFFCCF809118
:107FB000C00084FD01C0A8958091C6000895E0E648
:107FC000F0E098E1908380830895EDDF803219F02E
:107FD00088E0F5DFFFCF84E1DECF1F93182FE3DFCA
:107FE0001150E9F7F2DF1F91089580E0E8DFEE27F6
:047FF000FF270994CA
:027FFE00040479
:00000001FF
